:100000000C9445000C946D000C946D000C946D00E4
:100010000C946D000C946D000C946D000C946D00AC
:100020000C946D000C946D000C946D000C946D009C
:100030000C946D000C946D000C946D000C946D008C
:100040000C9439020C946D000C94A9020C94830258
:100050000C946D000C946D000C946D000C946D006C
:100060000C946D000C946D0005A84CCDB2D44EB923
:100070003836A9020C50B9918688083CA6AAAA2A4B
:10008000BE000000803FDB02AD0611241FBECFEF93
:10009000D8E0DEBFCDBF11E0A0E0B1E0ECEFF5E1CC
:1000A00002C005900D92A03CB107D9F722E0A0EC68
:1000B000B1E001C01D92AE37B207E1F710E0C4E431
:1000C000D0E004C02197FE010E94FD06C334D10791
:1000D000C9F70E9421030C94F10A0C9400003FB769
:1000E000F8948091C9019091CA01A091CB01B0917F
:1000F000CC0126B5A89B05C02F3F19F00196A11D84
:10010000B11D3FBFBA2FA92F982F8827BC01CD0161
:10011000620F711D811D911D42E0660F771F881FC0
:10012000991F4A95D1F70895FC0160817181828100
:1001300093810895FC0160817181072E000C880B6A
:10014000990B0E941D080895AF92BF92CF92DF9243
:10015000EF92FF920F931F93CF93DF936C017B017C
:100160008B01040F151FEB015E01AE18BF08C0170D
:10017000D10759F06991D601ED91FC910190F08180
:10018000E02DC6010995892B79F7C501DF91CF9143
:100190001F910F91FF90EF90DF90CF90BF90AF90A5
:1001A0000895FC01538D448D252F30E0842F90E07D
:1001B000821B930B541710F0CF9608950197089562
:1001C000FC01918D828D981761F0A28DAE0FBF2F2B
:1001D000B11D5D968C91928D9F5F9F73928F90E081
:1001E00008958FEF9FEF0895FC01918D828D9817F0
:1001F00031F0828DE80FF11D858D90E008958FEF2D
:100200009FEF0895FC01918D228D892F90E0805CF5
:100210009F4F821B91098F73992708958DEC91E070
:100220000E94020121E0892B09F420E0822F089529
:1002300080E090E0892B29F00E940E0181110C943E
:1002400000000895FC01A48DA80FB92FB11DA35A79
:10025000BF4F2C91848D90E001968F739927848FE6
:10026000A689B7892C93A089B1898C918370806409
:100270008C93938D848D981306C00288F389E02DAA
:1002800080818F7D80830895EF92FF920F931F935B
:10029000CF93DF93EC0181E0888F9B8D8C8D981339
:1002A0001AC0E889F989808185FF15C09FB7F89445
:1002B000EE89FF896083E889F98980818370806491
:1002C00080839FBF81E090E0DF91CF911F910F91DC
:1002D000FF90EF900895F62E0B8D10E00F5F1F4FEB
:1002E0000F731127E02E8C8D8E110CC00FB607FCFA
:1002F000FACFE889F989808185FFF5CFCE010E9488
:100300002201F1CFEB8DEC0FFD2FF11DE35AFF4FD2
:10031000F0829FB7F8940B8FEA89FB898081806215
:10032000CFCFCF93DF93EC01888D8823B9F0AA89D2
:10033000BB89E889F9898C9185FD03C0808186FDA0
:100340000DC00FB607FCF7CF8C9185FFF2CF8081EF
:1003500085FFEDCFCE010E942201E9CFDF91CF9141
:100360000895FC0101900020E9F73197AF01481B87
:10037000590BBC018DEC91E00C94A4008F929F92DC
:10038000AF92BF920F931F93CF93DF93CDB7DEB79A
:10039000A1970FB6F894DEBF0FBECDBF19A24230B1
:1003A00008F44AE08E010F5D1F4F842E912CB12C72
:1003B000A12CA50194010E94DB06E62FB901CA0118
:1003C000EA30F4F4E05DD801EE938D01232B242B69
:1003D000252B79F790E080E0109719F0CD010E946D
:1003E000B101A1960FB6F894DEBF0FBECDBFDF916D
:1003F000CF911F910F91BF90AF909F908F900895D4
:10040000E95CE1CF009711F00C94B10190E080E03D
:100410000895CF92DF92EF92FF92CF93DF936C011A
:10042000990FEE08FF08F7FE19C06DE28DEC91E020
:100430000E944401EC0166277727CB016C197D09E6
:100440008E099F094AE00E94BE018C0F9D1FDF911B
:10045000CF91FF90EF90DF90CF9008954AE0C701D1
:10046000B601DF91CF91FF90EF90DF90CF900C9489
:10047000BE011F920F920FB60F9211242F933F933C
:100480008F939F93AF93BF9380916A0290916B0279
:10049000A0916C02B0916D023091C80123E0230F4E
:1004A0002D3758F50196A11DB11D2093C8018093E9
:1004B0006A0290936B02A0936C02B0936D028091DC
:1004C000C9019091CA01A091CB01B091CC010196D4
:1004D000A11DB11D8093C9019093CA01A093CB01C6
:1004E000B093CC01BF91AF919F918F913F912F918C
:1004F0000F900FBE0F901F90189526E8230F0296BD
:10050000A11DB11DD2CF1F920F920FB60F921124D1
:100510002F933F934F935F936F937F938F939F930B
:10052000AF93BF93EF93FF938DEC91E00E94220174
:10053000FF91EF91BF91AF919F918F917F916F91BB
:100540005F914F913F912F910F900FBE0F901F9091
:1005500018951F920F920FB60F9211242F938F931D
:100560009F93EF93FF93E091DD01F091DE01808195
:10057000E091E301F091E40182FD1BC09081809144
:10058000E6018F5F8F732091E701821741F0E091C0
:10059000E601F0E0E353FE4F958F8093E601FF9173
:1005A000EF919F918F912F910F900FBE0F901F9001
:1005B00018958081F4CFEDECF1E01382128288EE81
:1005C00093E0A0E0B0E084839583A683B7838CE0BA
:1005D00091E09183808385EC90E09587848784EC1B
:1005E00090E09787868780EC90E0918B808B81EC00
:1005F00090E0938B828B82EC90E0958B848B86ECE1
:1006000090E0978B868B118E128E138E148EEEE6F1
:10061000F2E01186108613861286118210821782EC
:1006200016822FB7F89480916A0290916B02A09184
:100630006C02B0916D022FBF82839383A483B58334
:100640000895789484B5826084BD84B5816084BD4A
:1006500085B5826085BD85B5816085BD80916E0060
:10066000816080936E001092810080918100826091
:1006700080938100809181008160809381008091CE
:1006800080008160809380008091B10084608093BD
:10069000B1008091B00081608093B00080917A00B9
:1006A000846080937A0080917A00826080937A00DF
:1006B00080917A00816080937A0080917A008068CE
:1006C00080937A001092C100E091DD01F091DE018B
:1006D00082E08083E091D901F091DA011082E0910B
:1006E000DB01F091DC0180E180831092E501E09173
:1006F000E101F091E20186E08083E091DF01F09179
:10070000E001808180618083E091DF01F091E00170
:10071000808188608083E091DF01F091E001808139
:1007200080688083E091DF01F091E00180818F7D1E
:1007300080832FB7F89480916A0290916B02A09108
:100740006C02B0916D022FBF809370029093710282
:10075000A0937202B093730288E190E00E94CC09EA
:10076000EC018AE191E0998388838DE391E09B839A
:100770008A8382EC91E09D838C8384E990E09F835F
:100780008E8383E491E09987888781E591E09B8758
:100790008A8780EC91E09D878C878AE990E09F872B
:1007A0008E8728E531E0398B288B26E631E03B8BBC
:1007B0002A8B20E031E03D8B2C8B9F8B8E8B8BE046
:1007C00090E00E94CC09FC0111821082128283E029
:1007D00090E09483838388EC90E0968385838BE616
:1007E00091E090878783D287C1878091760290912C
:1007F0007702892B09F443C1A0917802B091790264
:10080000ED93FC93F0937902E093780280916E026D
:1008100090916F02019690936F0280936E022FB7B2
:10082000F89480916A0290916B02A0916C02B09151
:100830006D022FBF8093700290937102A093720299
:10084000B093730250E0252E50E0352E8091C60102
:100850009091C7018436910524F01092C70110923F
:10086000C6016091C6017091C701072E000C880B6C
:10087000990B0E941D082BED3FE049EC5FE30E94BD
:10088000110920E030E048EC51E40E947A070E9410
:10089000750720E030E040E252E40E94110920E0B8
:1008A00030E048E452E40E9404076093C201709370
:1008B000C3018093C4019093C501A0907402B090CD
:1008C000750283E891E00E94020286E891E00E94AE
:1008D000020288E891E00E9402022FB7F89460912A
:1008E0006A0270916B0280916C0290916D022FBF31
:1008F0004AE00E94BE01A114B10449F584EA91E0E6
:100900000E9402028BE891E00E94020288E891E0D6
:100910000E94020280916E0290916F020E94090271
:1009200084EA91E00E9402028EE891E00E940202B5
:1009300088E891E00E940202609170027091710259
:1009400080917202909173024AE00E94BE0184EA93
:1009500091E00E9402028CE891E00E94020281E98B
:1009600091E00E940202C0917602D0917702209716
:1009700009F49DC185E991E00E940202A114B1042D
:1009800009F0BBC085EA91E00E94020286E891E08E
:100990000E94020288E891E00E94020285EA91E04A
:1009A0000E9402028F8198850E94020285EA91E0EE
:1009B0000E94020284EA91E00E94020287E991E02B
:1009C0000E94020288E891E00E9402028A8190E07F
:1009D0000E94090284EA91E00E9402028BE991E000
:1009E0000E94020288E891E00E9402028D819E81AD
:1009F0000E94090284EA91E00E9402028EE991E0DD
:100A00000E94020288E891E00E9402028B819C8190
:100A10000E94090284EA91E00E94020281EA91E0C8
:100A20000E94020281E991E00E94020210E000E0CF
:100A30008B819C81081719073CF585EA91E00E949B
:100A40000202C80143E0880F991F4A95E1F7E98542
:100A5000FA85E80FF91F808191810E94020285EAE0
:100A600091E00E9402020F5F1F4F8B819C8108174B
:100A70001907F4F68AEA91E00E940202D9CFF093B6
:100A80007702E0937602BECE83EA91E00E940202F2
:100A900087EA91E00E94020281E991E00E9402024D
:100AA00010E000E08B819C810817190714F585EA96
:100AB00091E00E940202C80133E0880F991F3A9525
:100AC000E1F7E985FA85E80FF91F828193810E9499
:100AD000020285EA91E00E9402020F5F1F4F8B81A4
:100AE0009C8108171907F4F68AEA91E00E94020235
:100AF000D9CF89EA91E00E94020285EA91E00E9442
:100B000002028CE991E00E94020281E991E00E94D8
:100B1000020210E000E08B819C81081719070CF09D
:100B2000B7C0A985BA85C80123E0880F991F2A9507
:100B3000E1F7A80FB91F1696ED91FC91179714963F
:100B40008D919C9109956B017C01AC019B010E94E8
:100B50007E09882381F08CEA91E00E94B1010F5F49
:100B60001F4F8B819C8108171907ACF68AEA91E028
:100B70000E940202D0CF26013701E89477F82FEFC8
:100B80003FEF4FE75FE7C301B2010E947E09811189
:100B90000DC02FEF3FEF4FE75FE7C301B2010E94A7
:100BA000700718161CF480EB91E0D7CF2FEF3FEFC2
:100BB0004FE75FE4C701B6010E940C0918161CF448
:100BC00084EB91E0CACF2FEF3FEF4FE75FECC70117
:100BD000B6010E94700787FDF3CF20E030E0A90145
:100BE000C701B6010E94700787FF09C06DE28DEC56
:100BF00091E00E944401F7FAF094F7F8F09426E7A8
:100C00003CEC4BEA51E3C701B6010E9404076B01BB
:100C10007C010E94EC072B013C010E941B089B01F8
:100C2000AC01C701B6010E9403076B017C014AE0D9
:100C3000C301B2010E94BE016EE28DEC91E00E9400
:100C4000440199E0992E9A94992009F488CF20E0E4
:100C500030E040E251E4C701B6010E9411092B01C6
:100C60003C010E94EC076B01F12CE12C4AE0C7012A
:100C7000B6010E94BE01C701B6010E941B089B017C
:100C8000AC01C301B2010E9403076B017C01DBCF01
:100C900088EB91E00E9402020990D881C02D209734
:100CA00009F465CE8AEA91E00E94020260CE88EBE8
:100CB00091E00E9402028BEB91E00E94B1018DEB6A
:100CC00091E00E94B10180917402909175020196A9
:100CD00082339105ECF590937502809374028091B4
:100CE000C6019091C70101969093C7018093C601F8
:100CF0000E946F002B013C0182E3C82ED12CE12C15
:100D0000F12C0E946F006419750986099709683EE5
:100D1000734081059105A8F321E0C21AD108E108CA
:100D2000F10888EE480E83E0581E611C711CC11446
:100D3000D104E104F10429F72114310409F486CD2A
:100D40000E940E01882309F481CD0E9400007ECD0F
:100D50001092750210927402C2CF0F931F93CF931B
:100D6000DF93C0917602D091770208811981011535
:100D7000110569F0209749F089859A85009711F04F
:100D80000E94680ACE010E94680AE801EECF20970F
:100D900069F089859A85009711F00E94680ACE0152
:100DA000DF91CF911F910F910C94680ADF91CF9141
:100DB0001F910F910895A1E21A2EAA1BBB1BFD01E2
:100DC0000DC0AA1FBB1FEE1FFF1FA217B307E4072A
:100DD000F50720F0A21BB30BE40BF50B661F771F82
:100DE000881F991F1A9469F7609570958095909562
:100DF0009B01AC01BD01CF010895EE0FFF1F0590CF
:100E0000F491E02D09945058BB27AA270E941B0794
:100E10000C94BE080E94850838F00E948C0820F0CF
:100E200039F49F3F19F426F40C9482080EF4E095EF
:100E3000E7FB0C947C08E92F0E94E30858F3BA17EB
:100E4000620773078407950720F079F4A6F50C94E0
:100E500005090EF4E0950B2EBA2FA02D0B01B90158
:100E600090010C01CA01A0011124FF27591B99F020
:100E7000593F50F4503E68F11A16F040A22F232F2C
:100E8000342F4427585FF3CF469537952795A7957C
:100E9000F0405395C9F77EF41F16BA0B620B730B23
:100EA000840BBAF09150A1F0FF0FBB1F661F771F94
:100EB000881FC2F70EC0BA0F621F731F841F48F449
:100EC000879577956795B795F7959E3F08F0B0CFD2
:100ED0009395880F08F09927EE0F979587950895B9
:100EE0000E94580808F481E008950E949508E3954F
:100EF0000C94CF080E948E070C94BE080E948C08A8
:100F000058F00E94850840F029F45F3F29F00C94C6
:100F10007C0851110C9406090C9482080E94E30885
:100F200068F39923B1F3552391F3951B550BBB2718
:100F3000AA2762177307840738F09F5F5F4F220F5D
:100F4000331F441FAA1FA9F335D00E2E3AF0E0E854
:100F500032D091505040E695001CCAF72BD0FE2F9E
:100F600029D0660F771F881FBB1F26173707480732
:100F7000AB07B0E809F0BB0B802DBF01FF279358EA
:100F80005F4F3AF09E3F510578F00C947C080C942A
:100F900006095F3FE4F3983ED4F38695779567950D
:100FA000B795F7959F5FC9F7880F911D969587951F
:100FB00097F90895E1E0660F771F881FBB1F62173E
:100FC00073078407BA0720F0621B730B840BBA0BFC
:100FD000EE1F88F7E09508950E94EB0888F09F5770
:100FE00098F0B92F9927B751B0F0E1F0660F771F4D
:100FF000881F991F1AF0BA95C9F714C0B13091F043
:101000000E940509B1E008950C940509672F782F17
:101010008827B85F39F0B93FCCF386957795679507
:10102000B395D9F73EF490958095709561957F4F73
:101030008F4F9F4F0895E89409C097FB3EF4909519
:101040008095709561957F4F8F4F9F4F9923A9F0A1
:10105000F92F96E9BB279395F69587957795679530
:10106000B795F111F8CFFAF4BB0F11F460FF1BC074
:101070006F5F7F4F8F4F9F4F16C0882311F096E907
:1010800011C0772321F09EE8872F762F05C06623B5
:1010900071F096E8862F70E060E02AF09A95660F6E
:1010A000771F881FDAF7880F9695879597F9089527
:1010B000990F0008550FAA0BE0E8FEEF1616170669
:1010C000E807F907C0F012161306E407F50798F0D1
:1010D000621B730B840B950B39F40A2661F0232BEA
:1010E000242B252B21F408950A2609F4A140A69566
:1010F0008FEF811D811D089597F99F6780E870E04B
:1011000060E008959FEF80EC089500240A9416167D
:10111000170618060906089500240A9412161306E5
:101120001406050608950C9482080E94EB08D8F373
:10113000E894E0E0BB279F57F0F02AED3FE049EC50
:1011400006C0EE0FBB0F661F771F881F28F0B23A4C
:1011500062077307840728F0B25A620B730B840B83
:10116000E3959A9572F7803830F49A95BB0F661F15
:10117000771F881FD2F790480C948509092E039495
:10118000000C11F4882352F0BB0F40F4BF2B11F474
:1011900060FF04C06F5F7F4F8F4F9F4F0895EF93A5
:1011A000E0FF07C0A2EA2AED3FE049EC5FEB0E94B6
:1011B0001B070E94BE080F90039401FC9058E8E6BC
:1011C000F0E00C94910957FD9058440F551F59F0C9
:1011D0005F3F71F04795880F97FB991F61F09F3F24
:1011E00079F087950895121613061406551FF2CF4D
:1011F0004695F1DF08C0161617061806991FF1CF9D
:1012000086957105610508940895E894BB276627C3
:101210007727CB0197F908950E94580808F48FEFBB
:1012200008950E9424090C94BE080E94850838F095
:101230000E948C0820F0952311F00C947C080C94EB
:10124000820811240C9406090E94E30870F3959F0C
:10125000C1F3950F50E0551F629FF001729FBB27AD
:10126000F00DB11D639FAA27F00DB11DAA1F649F49
:101270006627B00DA11D661F829F2227B00DA11DFC
:10128000621F739FB00DA11D621F839FA00D611D82
:10129000221F749F3327A00D611D231F849F600DA3
:1012A000211D822F762F6A2F11249F5750409AF0CC
:1012B000F1F088234AF0EE0FFF1FBB1F661F771F58
:1012C000881F91505040A9F79E3F510580F00C9423
:1012D0007C080C9406095F3FE4F3983ED4F38695AE
:1012E00077956795B795F795E7959F5FC1F7FE2BC3
:1012F000880F911D9695879597F908950E94580833
:10130000880B990B08959F3F31F0915020F48795F9
:1013100077956795B795880F911D9695879597F95D
:1013200008959F938F937F936F93FF93EF939B0108
:10133000AC010E941109EF91FF910E94A5092F9124
:101340003F914F915F910C941109DF93CF931F93BD
:101350000F93FF92EF92DF927B018C01689406C09D
:10136000DA2EEF010E942409FE01E894A59125914F
:10137000359145915591A6F3EF010E941B07FE019F
:101380009701A801DA9469F7DF90EF90FF900F9131
:101390001F91CF91DF9108950F931F93CF93DF9308
:1013A0008230910510F482E090E0E0917C02F091AF
:1013B0007D0230E020E0B0E0A0E0309799F4211504
:1013C000310509F44AC0281B390B24303105D8F502
:1013D0008A819B816115710589F1FB019383828369
:1013E000FE0111C0408151810281138148175907C4
:1013F000E0F04817590799F4109761F012960C9392
:10140000129713961C933296CF01DF91CF911F91C3
:101410000F91089500937C0210937D02F4CF211563
:10142000310551F04217530738F0A901DB019A0149
:10143000BD01DF01F801C1CFEF01F9CF90937D022B
:1014400080937C02CDCFFE01E20FF31F8193919335
:101450002250310939832883D7CF20917A023091E5
:101460007B02232B41F4209104013091050130933C
:101470007B0220937A022091020130910301211511
:10148000310541F42DB73EB7409106015091070157
:10149000241B350BE0917A02F0917B02E217F307EF
:1014A000A0F42E1B3F0B2817390778F0AC014E5FD4
:1014B0005F4F2417350748F04E0F5F1F50937B0294
:1014C00040937A02819391939FCFF0E0E0E09CCF2C
:1014D000CF93DF930097E9F0FC01329713821282D9
:1014E000A0917C02B0917D02ED0130E020E01097E8
:1014F000A1F420813181820F931F20917A023091D3
:101500007B022817390709F061C0F0937B02E09352
:101510007A02DF91CF910895EA01CE17DF07E8F54F
:101520004A815B819E0141155105B1F7E901FB83B9
:10153000EA8349915991C40FD51FEC17FD0761F457
:10154000808191810296840F951FE9019983888398
:10155000828193819B838A83F0E0E0E012968D91F3
:101560009C9113970097B9F52D913C911197CD015E
:101570000296820F931F20917A0230917B022817E6
:10158000390739F6309751F510927D0210927C029E
:10159000B0937B02A0937A02BCCFD383C2834081F5
:1015A0005181840F951FC817D90761F44E5F5F4FB3
:1015B00088819981480F591F518340838A819B817B
:1015C000938382832115310509F0B0CFF0937D021A
:1015D000E0937C029ECFFD01DC01C0CF138212821A
:1015E000D7CF10E0C4E4D0E004C0FE010E94FD06A5
:0C15F0002196C534D107C9F7F894FFCF4D
:1015FC00640000007E028000000000004401A40092
:10160C00D10091010201E000F4003530202B20289C
:10161C003430202A20636F732878202A20285049E0
:10162C00202F203229202F2032352929006772657E
:10163C00656E006C6162656C20666F72206D696E00
:10164C00006F72616E6765006C6162656C20666F1D
:10165C0072206D6178006379616E00536F6D652047
:10166C007469746C65206F662061206772617068A4
:10167C003A20007B22007400223A006E67006C75E1
:10168C0000223A5B007B0078767900706400737AF4
:10169C00006C005D2C220063005D2C006E616E00FE
:1016AC00696E66006F7666005D7D0023000D0A0092
:00000001FF
