:100000000C9436000C945E000C945E000C945E0020
:100010000C945E000C945E000C945E000C945E00E8
:100020000C945E000C945E000C945E000C945E00D8
:100030000C945E000C945E000C945E000C945E00C8
:100040000C9420020C945E000C9490020C946A02B2
:100050000C945E000C945E000C945E000C945E00A8
:100060000C945E000C945E00C202810611241FBE37
:10007000CFEFD8E0DEBFCDBF11E0A0E0B1E0E6EA0F
:10008000F3E102C005900D92AA3AB107D9F722E038
:10009000AAEAB1E001C01D92A836B207E1F710E06C
:1000A000C5E3D0E004C02197FE010E94D106C4330D
:1000B000D107C9F70E9408030C94C6090C940000EC
:1000C0003FB7F8948091B3019091B401A091B5012C
:1000D000B091B60126B5A89B05C02F3F19F0019637
:1000E000A11DB11D3FBFBA2FA92F982F8827BC0192
:1000F000CD01620F711D811D911D42E0660F771FBA
:10010000881F991F4A95D1F70895FC01608171817C
:10011000828193810895AF92BF92CF92DF92EF9246
:10012000FF920F931F93CF93DF936C017B018B01A1
:10013000040F151FEB015E01AE18BF08C017D107F1
:1001400059F06991D601ED91FC910190F081E02D7B
:10015000C6010995892B79F7C501DF91CF911F91D0
:100160000F91FF90EF90DF90CF90BF90AF900895E8
:10017000FC01538D448D252F30E0842F90E0821BAD
:10018000930B541710F0CF96089501970895FC0132
:10019000918D828D981761F0A28DAE0FBF2FB11D8A
:1001A0005D968C91928D9F5F9F73928F90E00895E2
:1001B0008FEF9FEF0895FC01918D828D981731F09C
:1001C000828DE80FF11D858D90E008958FEF9FEFF0
:1001D0000895FC01918D228D892F90E0805C9F4FC6
:1001E000821B91098F739927089587EB91E00E94F4
:1001F000E90021E0892B09F420E0822F089580E0B6
:1002000090E0892B29F00E94F50081110C940000E8
:100210000895FC01A48DA80FB92FB11DA35ABF4F9B
:100220002C91848D90E001968F739927848FA689F5
:10023000B7892C93A089B1898C91837080648C9349
:10024000938D848D981306C00288F389E02D8081F8
:100250008F7D80830895EF92FF920F931F93CF932A
:10026000DF93EC0181E0888F9B8D8C8D98131AC0F1
:10027000E889F989808185FF15C09FB7F894EE89D8
:10028000FF896083E889F989808183708064808335
:100290009FBF81E090E0DF91CF911F910F91FF9080
:1002A000EF900895F62E0B8D10E00F5F1F4F0F7328
:1002B0001127E02E8C8D8E110CC00FB607FCFACFE3
:1002C000E889F989808185FFF5CFCE010E94090177
:1002D000F1CFEB8DEC0FFD2FF11DE35AFF4FF082B4
:1002E0009FB7F8940B8FEA89FB8980818062CFCF1A
:1002F000CF93DF93EC01888D8823B9F0AA89BB895D
:10030000E889F9898C9185FD03C0808186FD0DC047
:100310000FB607FCF7CF8C9185FFF2CF808185FF68
:10032000EDCFCE010E940901E9CFDF91CF91089571
:10033000FC0101900020E9F73197AF01481B590BF0
:10034000BC0187EB91E00C948B008F929F92AF924F
:10035000BF920F931F93CF93DF93CDB7DEB7A197D3
:100360000FB6F894DEBF0FBECDBF19A2423008F41D
:100370004AE08E010F5D1F4F842E912CB12CA12CD1
:10038000A50194010E94AF06E62FB901CA01EA3027
:10039000F4F4E05DD801EE938D01232B242B252B63
:1003A00079F790E080E0109719F0CD010E94980154
:1003B000A1960FB6F894DEBF0FBECDBFDF91CF91EF
:1003C0001F910F91BF90AF909F908F900895E95C1F
:1003D000E1CF009711F00C94980190E080E008952F
:1003E000CF92DF92EF92FF92CF93DF936C01990F40
:1003F000EE08FF08F7FE19C06DE287EB91E00E945E
:100400002B01EC0166277727CB016C197D098E093A
:100410009F094AE00E94A5018C0F9D1FDF91CF919B
:10042000FF90EF90DF90CF9008954AE0C701B601AA
:10043000DF91CF91FF90EF90DF90CF900C94A501CA
:100440001F920F920FB60F9211242F933F938F9309
:100450009F93AF93BF938091540290915502A091C6
:100460005602B09157023091B20123E0230F2D378D
:1004700058F50196A11DB11D2093B201809354023D
:1004800090935502A0935602B09357028091B30106
:100490009091B401A091B501B091B6010196A11D52
:1004A000B11D8093B3019093B401A093B501B093B3
:1004B000B601BF91AF919F918F913F912F910F9076
:1004C0000FBE0F901F90189526E8230F0296A11DCE
:1004D000B11DD2CF1F920F920FB60F9211242F93FE
:1004E0003F934F935F936F937F938F939F93AF93BC
:1004F000BF93EF93FF9387EB91E00E940901FF9177
:10050000EF91BF91AF919F918F917F916F915F918B
:100510004F913F912F910F900FBE0F901F90189504
:100520001F920F920FB60F9211242F938F939F93C8
:10053000EF93FF93E091C701F091C8018081E091B2
:10054000CD01F091CE0182FD1BC090818091D00140
:100550008F5F8F732091D101821741F0E091D0011C
:10056000F0E0E954FE4F958F8093D001FF91EF9119
:100570009F918F912F910F900FBE0F901F90189504
:100580008081F4CFE7EBF1E01382128288EE93E0F2
:10059000A0E0B0E084839583A683B7838EE091E0EA
:1005A0009183808385EC90E09587848784EC90E04C
:1005B0009787868780EC90E0918B808B81EC90E030
:1005C000938B828B82EC90E0958B848B86EC90E011
:1005D000978B868B118E128E138E148EE8E5F2E0C7
:1005E0001186108613861286118210821782168257
:1005F0002FB7F8948091540290915502A091560221
:10060000B09157022FBF82839383A483B58308954B
:10061000789484B5826084BD84B5816084BD85B5DD
:10062000826085BD85B5816085BD80916E008160E9
:1006300080936E001092810080918100826080938F
:100640008100809181008160809381008091800091
:100650008160809380008091B10084608093B100BC
:100660008091B00081608093B00080917A008460B6
:1006700080937A0080917A00826080937A008091E2
:100680007A00816080937A0080917A0080688093FC
:100690007A001092C100E091C701F091C80182E098
:1006A0008083E091C301F091C4011082E091C50103
:1006B000F091C60180E180831092CF01E091CB01DF
:1006C000F091CC0186E08083E091C901F091CA01EC
:1006D000808180618083E091C901F091CA018081AD
:1006E00088608083E091C901F091CA0180818068AF
:1006F0008083E091C901F091CA0180818F7D808360
:100700002FB7F8948091540290915502A09156020F
:10071000B09157022FBF80935A0290935B02A0932F
:100720005C02B0935D0288E190E00E94A108EC01B8
:100730008CE191E09983888388E291E09B838A83AE
:100740008EEA91E09D838C8385E890E09F838E8381
:100750002EE231E0398728872CE331E03B872A8776
:100760002AEA31E03D872C879F878E8723E431E09A
:10077000398B288B21E531E03B8B2A8B20E031E05F
:100780003D8B2C8B9F8B8E8B8BE090E00E94A10881
:10079000FC0111821082128283E090E094838383B3
:1007A00084E690E09683858386E591E09087878351
:1007B000D287C1878091600290916102892B09F4F0
:1007C00024C1A0916202B0916302ED93FC93F09377
:1007D0006302E0936202809158029091590201965F
:1007E00090935902809358022FB7F8948091540245
:1007F00090915502A0915602B09157022FBF80935D
:100800005A0290935B02A0935C02B0935D0250E0A9
:10081000252E50E0352E20E030E048EC52E4609187
:10082000AE017091AF018091B0019091B1010E9431
:100830002A0887FD08C01092AE011092AF011092F5
:10084000B0011092B101A0905E02B0905F028CE600
:1008500091E00E94E9018FE691E00E94E90181E7C1
:1008600091E00E94E9012FB7F894609154027091D1
:10087000550280915602909157022FBF4AE00E9484
:10088000A501A114B10449F58DE891E00E94E901A8
:1008900084E791E00E94E90181E791E00E94E9018B
:1008A00080915802909159020E94F0018DE891E0E8
:1008B0000E94E90187E791E00E94E90181E791E068
:1008C0000E94E90160915A0270915B0280915C0282
:1008D00090915D024AE00E94A5018DE891E00E949E
:1008E000E90185E791E00E94E9018AE791E00E9431
:1008F000E901C0916002D0916102209709F49DC185
:100900008EE791E00E94E901A114B10409F0BBC097
:100910008EE891E00E94E9018FE691E00E94E901F2
:1009200081E791E00E94E9018EE891E00E94E901EF
:100930008F8198850E94E9018EE891E00E94E9018B
:100940008DE891E00E94E90180E891E00E94E901D0
:1009500081E791E00E94E9018A8190E00E94F00124
:100960008DE891E00E94E90184E891E00E94E901AC
:1009700081E791E00E94E9018D819E810E94F00152
:100980008DE891E00E94E90187E891E00E94E90189
:1009900081E791E00E94E9018B819C810E94F00136
:1009A0008DE891E00E94E9018AE891E00E94E90166
:1009B0008AE791E00E94E90110E000E08B819C81D0
:1009C000081719073CF58EE891E00E94E901C8017B
:1009D00043E0880F991F4A95E1F7E985FA85E80F0A
:1009E000F91F808191810E94E9018EE891E00E94C7
:1009F000E9010F5F1F4F8B819C8108171907F4F6DF
:100A000083E991E00E94E901D9CFF0936102E0937C
:100A10006002DDCE8CE891E00E94E90180E991E07E
:100A20000E94E9018AE791E00E94E90110E000E0FC
:100A30008B819C810817190714F58EE891E00E94BC
:100A4000E901C80133E0880F991F3A95E1F7E9857C
:100A5000FA85E80FF91F828193810E94E9018EE8EF
:100A600091E00E94E9010F5F1F4F8B819C81081765
:100A70001907F4F683E991E00E94E901D9CF82E9F0
:100A800091E00E94E9018EE891E00E94E90185E889
:100A900091E00E94E9018AE791E00E94E90110E0FB
:100AA00000E08B819C81081719070CF0B7C0A9855D
:100AB000BA85C80123E0880F991F2A95E1F7A80F8E
:100AC000B91F1696ED91FC91179714968D919C91F4
:100AD00009956B017C01AC019B010E949C08882355
:100AE00081F085E991E00E9498010F5F1F4F8B8193
:100AF0009C8108171907ACF683E991E00E94E9018F
:100B0000D0CF26013701E89477F82FEF3FEF4FE77A
:100B10005FE7C301B2010E949C0881110DC02FEF55
:100B20003FEF4FE75FE7C301B2010E944407181689
:100B30001CF489E991E0D7CF2FEF3FEF4FE75FE457
:100B4000C701B6010E942A0818161CF48DE991E02D
:100B5000CACF2FEF3FEF4FE75FECC701B6010E940E
:100B6000440787FDF3CF20E030E0A901C701B601BB
:100B70000E94440787FF09C06DE287EB91E00E9465
:100B80002B01F7FAF094F7F8F09426E73CEC4BEAE7
:100B900051E3C701B6010E94D8066B017C010E9497
:100BA00049072B013C010E9478079B01AC01C7015A
:100BB000B6010E94D7066B017C014AE0C301B20175
:100BC0000E94A5016EE287EB91E00E942B0199E063
:100BD000992E9A94992009F488CF20E030E040E2E1
:100BE00051E4C701B6010E942F082B013C010E946D
:100BF00049076B01F12CE12C4AE0C701B6010E94C4
:100C0000A501C701B6010E9478079B01AC01C30191
:100C1000B2010E94D7066B017C01DBCF81EA91E033
:100C20000E94E9010990D881C02D209709F465CE72
:100C300083E991E00E94E90160CE81EA91E00E949F
:100C4000E90184EA91E00E94980186EA91E00E941D
:100C5000980180915E0290915F0201968233910526
:100C60000CF04AC090935F0280935E0220E030E077
:100C700040E85FE36091AE017091AF018091B001F7
:100C80009091B1010E94D8066093AE017093AF01BC
:100C90008093B0019093B1010E9460002B013C0150
:100CA00084E6C82ED12CE12CF12C0E94600064193E
:100CB000750986099709683E734081059105A8F377
:100CC00021E0C21AD108E108F10888EE480E83E05D
:100CD000581E611C711CC114D104E104F10429F7F0
:100CE0002114310409F497CD0E94F500882309F4FA
:100CF00092CD0E9400008FCD10925F0210925E0292
:100D0000B5CF0F931F93CF93DF93C0916002D09123
:100D10006102088119810115110569F0209749F0D8
:100D200089859A85009711F00E943D09CE010E94A5
:100D30003D09E801EECF209769F089859A850097F3
:100D400011F00E943D09CE01DF91CF911F910F91CB
:100D50000C943D09DF91CF911F910F910895A1E26D
:100D60001A2EAA1BBB1BFD010DC0AA1FBB1FEE1F25
:100D7000FF1FA217B307E407F50720F0A21BB30B70
:100D8000E40BF50B661F771F881F991F1A9469F7EC
:100D900060957095809590959B01AC01BD01CF0148
:100DA0000895EE0FFF1F0590F491E02D099450581F
:100DB000BB27AA270E94EF060C94F0070E94E207C7
:100DC00038F00E94E90720F039F49F3F19F426F427
:100DD0000C94DF070EF4E095E7FB0C94D907E92F9C
:100DE0000E94010858F3BA17620773078407950732
:100DF00020F079F4A6F50C9423080EF4E0950B2E60
:100E0000BA2FA02D0B01B90190010C01CA01A0015C
:100E10001124FF27591B99F0593F50F4503E68F1B7
:100E20001A16F040A22F232F342F4427585FF3CFF8
:100E3000469537952795A795F0405395C9F77EF4C9
:100E40001F16BA0B620B730B840BBAF09150A1F012
:100E5000FF0FBB1F661F771F881FC2F70EC0BA0F98
:100E6000621F731F841F48F4879577956795B79520
:100E7000F7959E3F08F0B0CF9395880F08F099271B
:100E8000EE0F9795879508950E94B50708F481E0C5
:100E900008950E94090888F09F5798F0B92F992764
:100EA000B751B0F0E1F0660F771F881F991F1AF055
:100EB000BA95C9F714C0B13091F00E942308B1E08F
:100EC00008950C942308672F782F8827B85F39F08E
:100ED000B93FCCF3869577956795B395D9F73EF4EE
:100EE00090958095709561957F4F8F4F9F4F089596
:100EF000E89409C097FB3EF49095809570956195B4
:100F00007F4F8F4F9F4F9923A9F0F92F96E9BB2769
:100F10009395F695879577956795B795F111F8CFE5
:100F2000FAF4BB0F11F460FF1BC06F5F7F4F8F4F50
:100F30009F4F16C0882311F096E911C0772321F046
:100F40009EE8872F762F05C0662371F096E8862FDE
:100F500070E060E02AF09A95660F771F881FDAF735
:100F6000880F9695879597F90895990F0008550F62
:100F7000AA0BE0E8FEEF16161706E807F907C0F01F
:100F800012161306E407F50798F0621B730B840B27
:100F9000950B39F40A2661F0232B242B252B21F401
:100FA00008950A2609F4A140A6958FEF811D811DA1
:100FB000089597F99F6780E870E060E008959FEFDB
:100FC00080EC089500240A941616170618060906E0
:100FD000089500240A9412161306140605060895AF
:100FE000092E0394000C11F4882352F0BB0F40F437
:100FF000BF2B11F460FF04C06F5F7F4F8F4F9F4F77
:10100000089557FD9058440F551F59F05F3F71F0F8
:101010004795880F97FB991F61F09F3F79F087955F
:101020000895121613061406551FF2CF4695F1DFE8
:1010300008C0161617061806991FF1CF8695710578
:10104000610508940895E894BB2766277727CB01AC
:1010500097F908950E94B50708F48FEF08950E944C
:1010600042080C94F0070E94E20738F00E94E9075A
:1010700020F0952311F00C94D9070C94DF0711246C
:101080000C9424080E94010870F3959FC1F3950FFA
:1010900050E0551F629FF001729FBB27F00DB11DFC
:1010A000639FAA27F00DB11DAA1F649F6627B00D8C
:1010B000A11D661F829F2227B00DA11D621F739F75
:1010C000B00DA11D621F839FA00D611D221F749F83
:1010D0003327A00D611D231F849F600D211D822FCA
:1010E000762F6A2F11249F5750409AF0F1F08823F1
:1010F0004AF0EE0FFF1FBB1F661F771F881F91501E
:101100005040A9F79E3F510580F00C94D9070C94EC
:1011100024085F3FE4F3983ED4F38695779567956E
:10112000B795F795E7959F5FC1F7FE2B880F911D47
:101130009695879597F908950E94B507880B990BA6
:1011400008950F931F93CF93DF938230910510F48E
:1011500082E090E0E0916602F091670230E020E0EA
:10116000B0E0A0E0309799F42115310509F44AC0A8
:10117000281B390B24303105D8F58A819B816115F4
:10118000710589F1FB0193838283FE0111C04081C7
:1011900051810281138148175907E0F04817590718
:1011A00099F4109761F012960C93129713961C9372
:1011B0003296CF01DF91CF911F910F910895009347
:1011C000660210936702F4CF2115310551F04217E2
:1011D000530738F0A901DB019A01BD01DF01F801D5
:1011E000C1CFEF01F9CF9093670280936602CDCF14
:1011F000FE01E20FF31F819391932250310939834D
:101200002883D7CF2091640230916502232B41F4CB
:10121000209106013091070130936502209364020A
:1012200020910401309105012115310541F42DB7BC
:101230003EB74091080150910901241B350BE09104
:101240006402F0916502E217F307A0F42E1B3F0B36
:101250002817390778F0AC014E5F5F4F2417350728
:1012600048F04E0F5F1F50936502409364028193D4
:1012700091939FCFF0E0E0E09CCFCF93DF93009776
:10128000E9F0FC01329713821282A0916602B091BC
:101290006702ED0130E020E01097A1F42081318158
:1012A000820F931F2091640230916502281739073D
:1012B00009F061C0F0936502E0936402DF91CF9181
:1012C0000895EA01CE17DF07E8F54A815B819E01A8
:1012D00041155105B1F7E901FB83EA834991599121
:1012E000C40FD51FEC17FD0761F480819181029630
:1012F000840F951FE90199838883828193819B8361
:101300008A83F0E0E0E012968D919C91139700970C
:10131000B9F52D913C911197CD010296820F931F43
:1013200020916402309165022817390739F6309709
:1013300051F51092670210926602B0936502A09375
:101340006402BCCFD383C28340815181840F951F37
:10135000C817D90761F44E5F5F4F88819981480FA4
:10136000591F518340838A819B81938382832115F6
:10137000310509F0B0CFF0936702E09366029ECF8B
:10138000FD01DC01C0CF13821282D7CF10E0C5E38C
:10139000D0E004C0FE010E94D1062196C633D107D9
:0613A000C9F7F894FFCF2D
:1013A6000000C842000068028000000000002B0117
:1013B6008B00B8007801E900C700DB006C6162654C
:1013C6006C20666F72207800677265656E006C61CE
:1013D60062656C20666F72206D696E006F72616E59
:1013E6006765006C6162656C20666F72206D61785E
:1013F600006379616E00536F6D65207469746C6566
:10140600206F662061206772617068007B2200741D
:1014160000223A006E67006C7500223A5B007B0082
:1014260078767900706400737A006C005D2C220077
:1014360063005D2C006E616E00696E66006F7666F5
:0A144600005D7D0023000D0A000088
:00000001FF
