:100000000C9436000C945E000C945E000C945E0020
:100010000C945E000C945E000C945E000C945E00E8
:100020000C945E000C945E000C945E000C945E00D8
:100030000C945E000C945E000C945E000C945E00C8
:100040000C9424020C945E000C9494020C946E02A6
:100050000C945E000C945E000C945E000C945E00A8
:100060000C945E000C945E00C6026A0611241FBE4A
:10007000CFEFD8E0DEBFCDBF11E0A0E0B1E0E8E710
:10008000F3E102C005900D92A83AB107D9F722E03A
:10009000A8EAB1E001C01D92A236B207E1F710E074
:1000A000C5E3D0E004C02197FE010E94BA06C43324
:1000B000D107C9F70E940C030C94AF090C940000FF
:1000C0003FB7F8948091AD019091AE01A091AF013E
:1000D000B091B00126B5A89B05C02F3F19F001963D
:1000E000A11DB11D3FBFBA2FA92F982F8827BC0192
:1000F000CD01620F711D811D911D42E0660F771FBA
:10010000881F991F4A95D1F70895FC01608171817C
:10011000072E000C880B990B0E9463070895AF927D
:10012000BF92CF92DF92EF92FF920F931F93CF93E4
:10013000DF936C017B018B01040F151FEB015E0146
:10014000AE18BF08C017D10759F06991D601ED91DB
:10015000FC910190F081E02DC6010995892B79F77A
:10016000C501DF91CF911F910F91FF90EF90DF902C
:10017000CF90BF90AF900895FC01538D448D252FF3
:1001800030E0842F90E0821B930B541710F0CF9631
:10019000089501970895FC01918D828D981761F063
:1001A000A28DAE0FBF2FB11D5D968C91928D9F5F7A
:1001B0009F73928F90E008958FEF9FEF0895FC0159
:1001C000918D828D981731F0828DE80FF11D858D0C
:1001D00090E008958FEF9FEF0895FC01918D228D9F
:1001E000892F90E0805C9F4F821B91098F73992724
:1001F000089581EB91E00E94ED0021E0892B09F444
:1002000020E0822F089580E090E0892B29F00E9461
:10021000F90081110C9400000895FC01A48DA80F31
:10022000B92FB11DA35ABF4F2C91848D90E0019638
:100230008F739927848FA689B7892C93A089B18958
:100240008C91837080648C93938D848D981306C0F9
:100250000288F389E02D80818F7D80830895EF925D
:10026000FF920F931F93CF93DF93EC0181E0888F70
:100270009B8D8C8D98131AC0E889F989808185FF40
:1002800015C09FB7F894EE89FF896083E889F989E2
:1002900080818370806480839FBF81E090E0DF91E4
:1002A000CF911F910F91FF90EF900895F62E0B8D37
:1002B00010E00F5F1F4F0F731127E02E8C8D8E11F2
:1002C0000CC00FB607FCFACFE889F989808185FF59
:1002D000F5CFCE010E940D01F1CFEB8DEC0FFD2F7C
:1002E000F11DE35AFF4FF0829FB7F8940B8FEA8914
:1002F000FB8980818062CFCFCF93DF93EC01888D23
:100300008823B9F0AA89BB89E889F9898C9185FD90
:1003100003C0808186FD0DC00FB607FCF7CF8C911E
:1003200085FFF2CF808185FFEDCFCE010E940D01C8
:10033000E9CFDF91CF910895FC0101900020E9F70A
:100340003197AF01481B590BBC0181EB91E00C9434
:100350008F008F929F92AF92BF920F931F93CF9374
:10036000DF93CDB7DEB7A1970FB6F894DEBF0FBE0F
:10037000CDBF19A2423008F44AE08E010F5D1F4F35
:10038000842E912CB12CA12CA50194010E949806D9
:10039000E62FB901CA01EA30F4F4E05DD801EE932A
:1003A0008D01232B242B252B79F790E080E01097EB
:1003B00019F0CD010E949C01A1960FB6F894DEBF02
:1003C0000FBECDBFDF91CF911F910F91BF90AF9026
:1003D0009F908F900895E95CE1CF009711F00C9405
:1003E0009C0190E080E00895CF92DF92EF92FF921F
:1003F000CF93DF936C01990FEE08FF08F7FE19C049
:100400006DE281EB91E00E942F01EC0166277727D6
:10041000CB016C197D098E099F094AE00E94A90150
:100420008C0F9D1FDF91CF91FF90EF90DF90CF90C9
:1004300008954AE0C701B601DF91CF91FF90EF9098
:10044000DF90CF900C94A9011F920F920FB60F92DC
:1004500011242F933F938F939F93AF93BF938091DA
:100460004E0290914F02A0915002B09151023091F2
:10047000AC0123E0230F2D3758F50196A11DB11DC6
:100480002093AC0180934E0290934F02A0935002B0
:10049000B09351028091AD019091AE01A091AF0156
:1004A000B091B0010196A11DB11D8093AD01909353
:1004B000AE01A093AF01B093B001BF91AF919F91F6
:1004C0008F913F912F910F900FBE0F901F90189515
:1004D00026E8230F0296A11DB11DD2CF1F920F92C5
:1004E0000FB60F9211242F933F934F935F936F9307
:1004F0007F938F939F93AF93BF93EF93FF9381EB82
:1005000091E00E940D01FF91EF91BF91AF919F91FA
:100510008F917F916F915F914F913F912F910F90AC
:100520000FBE0F901F9018951F920F920FB60F924B
:1005300011242F938F939F93EF93FF93E091C10129
:10054000F091C2018081E091C701F091C80182FD64
:100550001BC090818091CA018F5F8F732091CB0166
:10056000821741F0E091CA01F0E0EF54FE4F958F01
:100570008093CA01FF91EF919F918F912F910F90DE
:100580000FBE0F901F9018958081F4CFE1EBF1E042
:100590001382128288EE93E0A0E0B0E0848395831A
:1005A000A683B7838CE091E09183808385EC90E013
:1005B0009587848784EC90E09787868780EC90E02D
:1005C000918B808B81EC90E0938B828B82EC90E01E
:1005D000958B848B86EC90E0978B868B118E128E98
:1005E000138E148EE2E5F2E01186108613861286D1
:1005F00011821082178216822FB7F89480914E02D2
:1006000090914F02A0915002B09151022FBF82836E
:100610009383A483B5830895789484B5826084BD60
:1006200084B5816084BD85B5826085BD85B58160F6
:1006300085BD80916E00816080936E001092810074
:10064000809181008260809381008091810081602F
:1006500080938100809180008160809380008091F0
:10066000B10084608093B1008091B000816080937C
:10067000B00080917A00846080937A0080917A0043
:10068000826080937A0080917A00816080937A0002
:1006900080917A00806880937A001092C100E09186
:1006A000C101F091C20182E08083E091BD01F0912F
:1006B000BE011082E091BF01F091C00180E1808312
:1006C0001092C901E091C501F091C60186E08083D6
:1006D000E091C301F091C401808180618083E09149
:1006E000C301F091C401808188608083E091C301DF
:1006F000F091C401808180688083E091C301F09112
:10070000C40180818F7D80832FB7F89480914E0241
:1007100090914F02A0915002B09151022FBF80934F
:10072000540290935502A0935602B093570288E169
:1007300090E00E948A08EC018AE191E09983888325
:1007400086E291E09B838A838AEA91E09D838C8391
:1007500085E890E09F838E832CE231E039872887FB
:100760002AE331E03B872A8728EA31E03D872C875E
:100770009F878E8721E431E0398B288B2FE431E08D
:100780003B8B2A8B20E031E03D8B2C8B9F8B8E8B1B
:100790008BE090E00E948A08FC0111821082128294
:1007A00083E090E09483838386E990E09683858359
:1007B00084E591E090878783D287C18780915A0230
:1007C00090915B02892B09F417C1A0915C02B09152
:1007D0005D02ED93FC93F0935D02E0935C028091E7
:1007E00052029091530201969093530280935202C9
:1007F0002FB7F89480914E0290914F02A091500231
:10080000B09151022FBF8093540290935502A09350
:100810005602B093570250E0252E50E0352E8091BD
:10082000AA019091AB018436910524F01092AB019E
:100830001092AA01A0905802B09059028AE691E065
:100840000E94ED018DE691E00E94ED018FE691E0BE
:100850000E94ED012FB7F89460914E0270914F0203
:1008600080915002909151022FBF4AE00E94A9014D
:10087000A114B10449F58BE891E00E94ED0182E7F3
:1008800091E00E94ED018FE691E00E94ED018091E0
:100890005202909153020E94F4018BE891E00E9471
:1008A000ED0185E791E00E94ED018FE691E00E9465
:1008B000ED01609154027091550280915602909121
:1008C00057024AE00E94A9018BE891E00E94ED01E5
:1008D00083E791E00E94ED0188E791E00E94ED013D
:1008E000C0915A02D0915B02209709F49DC18CE718
:1008F00091E00E94ED01A114B10409F0BBC08CE8A5
:1009000091E00E94ED018DE691E00E94ED018FE6FD
:1009100091E00E94ED018CE891E00E94ED018F8151
:1009200098850E94ED018CE891E00E94ED018BE832
:1009300091E00E94ED018EE791E00E94ED018FE6CB
:1009400091E00E94ED018A8190E00E94F4018BE821
:1009500091E00E94ED0182E891E00E94ED018FE6B6
:1009600091E00E94ED018D819E810E94F4018BE84F
:1009700091E00E94ED0185E891E00E94ED018FE693
:1009800091E00E94ED018B819C810E94F4018BE833
:1009900091E00E94ED0188E891E00E94ED0188E776
:1009A00091E00E94ED0110E000E08B819C8108172E
:1009B00019073CF58CE891E00E94ED01C80143E085
:1009C000880F991F4A95E1F7E985FA85E80FF91F25
:1009D000808191810E94ED018CE891E00E94ED01FF
:1009E0000F5F1F4F8B819C8108171907F4F681E96F
:1009F00091E00E94ED01D9CFF0935B02E0935A029F
:100A0000EACE8AE891E00E94ED018EE891E00E9432
:100A1000ED0188E791E00E94ED0110E000E08B819C
:100A20009C810817190714F58CE891E00E94ED01EC
:100A3000C80133E0880F991F3A95E1F7E985FA85F7
:100A4000E80FF91F828193810E94ED018CE891E00B
:100A50000E94ED010F5F1F4F8B819C8108171907C2
:100A6000F4F681E991E00E94ED01D9CF80E991E0AF
:100A70000E94ED018CE891E00E94ED0183E891E095
:100A80000E94ED0188E791E00E94ED0110E000E096
:100A90008B819C81081719070CF0B7C0A985BA850E
:100AA000C80123E0880F991F2A95E1F7A80FB91F05
:100AB0001696ED91FC91179714968D919C9109953E
:100AC0006B017C01AC019B010E948508882381F0A9
:100AD00083E991E00E949C010F5F1F4F8B819C81F5
:100AE00008171907ACF681E991E00E94ED01D0CF1B
:100AF00026013701E89477F82FEF3FEF4FE75FE7E4
:100B0000C301B2010E94850881110DC02FEF3FEF94
:100B10004FE75FE7C301B2010E942D0718161CF4CE
:100B200087E991E0D7CF2FEF3FEF4FE75FE4C701B1
:100B3000B6010E94130818161CF48BE991E0CACF85
:100B40002FEF3FEF4FE75FECC701B6010E942D0783
:100B500087FDF3CF20E030E0A901C701B6010E9474
:100B60002D0787FF09C06DE281EB91E00E942F0104
:100B7000F7FAF094F7F8F09426E73CEC4BEA51E3EF
:100B8000C701B6010E94C1066B017C010E943207B9
:100B90002B013C010E9461079B01AC01C701B6011A
:100BA0000E94C0066B017C014AE0C301B2010E94B1
:100BB000A9016EE281EB91E00E942F0199E0992E4C
:100BC0009A94992009F488CF20E030E040E251E483
:100BD000C701B6010E9418082B013C010E94320790
:100BE0006B01F12CE12C4AE0C701B6010E94A9017A
:100BF000C701B6010E9461079B01AC01C301B201AC
:100C00000E94C0066B017C01DBCF8FE991E00E945E
:100C1000ED010990D881C02D209709F465CE81E9B6
:100C200091E00E94ED0160CE8FE991E00E94ED011C
:100C300082EA91E00E949C0184EA91E00E949C017A
:100C40008091580290915902019682339105ECF5FA
:100C500090935902809358028091AA019091AB0120
:100C600001969093AB018093AA010E9460002B0132
:100C70003C018AE0C82ED12CE12CF12C0E946000AE
:100C80006419750986099709683E734081059105C5
:100C9000A8F321E0C21AD108E108F10888EE480E55
:100CA00083E0581E611C711CC114D104E104F104DD
:100CB00029F72114310409F4B2CD0E94F9008823E8
:100CC00009F4ADCD0E940000AACD109259021092F5
:100CD0005802C2CF0F931F93CF93DF93C0915A0254
:100CE000D0915B02088119810115110569F02097E7
:100CF00049F089859A85009711F00E942609CE0156
:100D00000E942609E801EECF209769F089859A852F
:100D1000009711F00E942609CE01DF91CF911F911B
:100D20000F910C942609DF91CF911F910F91089597
:100D3000A1E21A2EAA1BBB1BFD010DC0AA1FBB1FDF
:100D4000EE1FFF1FA217B307E407F50720F0A21B51
:100D5000B30BE40BF50B661F771F881F991F1A94BE
:100D600069F760957095809590959B01AC01BD01E8
:100D7000CF010895EE0FFF1F0590F491E02D099427
:100D80005058BB27AA270E94D8060C94D9070E9466
:100D9000CB0738F00E94D20720F039F49F3F19F4B6
:100DA00026F40C94C8070EF4E095E7FB0C94C207F8
:100DB000E92F0E94EA0758F3BA17620773078407FE
:100DC000950720F079F4A6F50C940C080EF4E09544
:100DD0000B2EBA2FA02D0B01B90190010C01CA01F5
:100DE000A0011124FF27591B99F0593F50F4503EA0
:100DF00068F11A16F040A22F232F342F4427585F92
:100E0000F3CF469537952795A795F0405395C9F7A9
:100E10007EF41F16BA0B620B730B840BBAF0915061
:100E2000A1F0FF0FBB1F661F771F881FC2F70EC000
:100E3000BA0F621F731F841F48F4879577956795D3
:100E4000B795F7959E3F08F0B0CF9395880F08F0BF
:100E50009927EE0F9795879508950E949E0708F4AD
:100E600081E008950E94F20788F09F5798F0B92F0B
:100E70009927B751B0F0E1F0660F771F881F991FCF
:100E80001AF0BA95C9F714C0B13091F00E940C085D
:100E9000B1E008950C940C08672F782F8827B85F6D
:100EA00039F0B93FCCF3869577956795B395D9F727
:100EB0003EF490958095709561957F4F8F4F9F4F31
:100EC0000895E89409C097FB3EF49095809570953D
:100ED00061957F4F8F4F9F4F9923A9F0F92F96E986
:100EE000BB279395F695879577956795B795F111FB
:100EF000F8CFFAF4BB0F11F460FF1BC06F5F7F4F98
:100F00008F4F9F4F16C0882311F096E911C07723A9
:100F100021F09EE8872F762F05C0662371F096E8B2
:100F2000862F70E060E02AF09A95660F771F881F81
:100F3000DAF7880F9695879597F90895990F000825
:100F4000550FAA0BE0E8FEEF16161706E807F9079B
:100F5000C0F012161306E407F50798F0621B730B36
:100F6000840B950B39F40A2661F0232B242B252BB7
:100F700021F408950A2609F4A140A6958FEF811D5A
:100F8000811D089597F99F6780E870E060E00895FB
:100F90009FEF80EC089500240A9416161706180691
:100FA0000906089500240A9412161306140605066D
:100FB0000895092E0394000C11F4882352F0BB0FFE
:100FC00040F4BF2B11F460FF04C06F5F7F4F8F4F61
:100FD0009F4F089557FD9058440F551F59F05F3F9C
:100FE00071F04795880F97FB991F61F09F3F79F04B
:100FF00087950895121613061406551FF2CF4695CD
:10100000F1DF08C0161617061806991FF1CF86954E
:101010007105610508940895E894BB276627772732
:10102000CB0197F908950E949E0708F48FEF089569
:101030000E942B080C94D9070E94CB0738F00E941D
:10104000D20720F0952311F00C94C2070C94C80726
:1010500011240C940D080E94EA0770F3959FC1F3C8
:10106000950F50E0551F629FF001729FBB27F00D56
:10107000B11D639FAA27F00DB11DAA1F649F6627AB
:10108000B00DA11D661F829F2227B00DA11D621FFA
:10109000739FB00DA11D621F839FA00D611D221FB4
:1010A000749F3327A00D611D231F849F600D211D98
:1010B000822F762F6A2F11249F5750409AF0F1F01B
:1010C00088234AF0EE0FFF1FBB1F661F771F881F84
:1010D00091505040A9F79E3F510580F00C94C207F3
:1010E0000C940D085F3FE4F3983ED4F38695779512
:1010F0006795B795F795E7959F5FC1F7FE2B880F2A
:10110000911D9695879597F908950E949E07880BE3
:10111000990B08950F931F93CF93DF93823091051E
:1011200010F482E090E0E0916002F091610230E022
:1011300020E0B0E0A0E0309799F42115310509F4E2
:101140004AC0281B390B24303105D8F58A819B8190
:101150006115710589F1FB0193838283FE0111C042
:10116000408151810281138148175907E0F04817E7
:10117000590799F4109761F012960C9312971396F1
:101180001C933296CF01DF91CF911F910F9108955B
:101190000093600210936102F4CF2115310551F0E4
:1011A0004217530738F0A901DB019A01BD01DF01A5
:1011B000F801C1CFEF01F9CF9093610280936002F3
:1011C000CDCFFE01E20FF31F81939193225031099D
:1011D00039832883D7CF20915E0230915F02232B81
:1011E00041F4209104013091050130935F02209376
:1011F0005E0220910201309103012115310541F475
:101200002DB73EB74091060150910701241B350BC5
:10121000E0915E02F0915F02E217F307A0F42E1B4B
:101220003F0B2817390778F0AC014E5F5F4F24174A
:10123000350748F04E0F5F1F50935F0240935E02E8
:10124000819391939FCFF0E0E0E09CCFCF93DF9329
:101250000097E9F0FC01329713821282A09160029C
:10126000B0916102ED0130E020E01097A1F42081FF
:101270003181820F931F20915E0230915F02281707
:10128000390709F061C0F0935F02E0935E02DF91DD
:10129000CF910895EA01CE17DF07E8F54A815B8117
:1012A0009E0141155105B1F7E901FB83EA8349919C
:1012B0005991C40FD51FEC17FD0761F4808191810E
:1012C0000296840F951FE901998388838281938117
:1012D0009B838A83F0E0E0E012968D919C911397B6
:1012E0000097B9F52D913C911197CD010296820F8F
:1012F000931F20915E0230915F022817390739F65B
:10130000309751F51092610210926002B0935F0223
:10131000A0935E02BCCFD383C28340815181840FEE
:10132000951FC817D90761F44E5F5F4F8881998177
:10133000480F591F518340838A819B819383828305
:101340002115310509F0B0CFF0936102E0936002FE
:101350009ECFFD01DC01C0CF13821282D7CF10E0F7
:10136000C5E3D0E004C0FE010E94BA062196C63350
:08137000D107C9F7F894FFCF83
:101378006400000062028000000000002F018F005E
:10138800BC007C01ED00CB00DF006C6162656C2065
:10139800666F72207800677265656E006C616265C1
:1013A8006C20666F72206D696E006F72616E676582
:1013B800006C6162656C20666F72206D61780063F5
:1013C80079616E00536F6D65207469746C65206F68
:1013D800662061206772617068007B2200740022B9
:1013E8003A006E67006C7500223A5B007B007876E5
:1013F8007900706400737A006C005D2C2200630031
:101408005D2C006E616E00696E66006F7666005D29
:081418007D0023000D0A000015
:00000001FF
